:020000040800F2
:10000000889700209D0100085D23000859230008FF
:100010005B230008A7020008B12A000800000000C6
:100020000000000000000000000000006123000844
:10003000B9050008000000005F23000863230008E2
:10004000B7010008B7010008B7010008B7010008B0
:10005000B7010008B7010008B7010008B7010008A0
:10006000B7010008B7010008B7010008B701000890
:10007000B7010008B70100088F0500089D050008BA
:10008000B7010008B7010008B7010008B701000870
:10009000B7010008B7010008B7010008B701000860
:1000A000D9230008B7010008B7010008B70100080C
:1000B000B7010008B7010008B7010008B701000840
:1000C000B7010008B7010008B7010008B701000830
:1000D000B7010008A52A0008B7010008B701000809
:1000E000B7010008B7010008B7010008B701000810
:1000F000B7010008B7010008B7010008B701000800
:10010000000000000000000000000000B70100082F
:10011000B7010008B7010008B7010008B7010008DF
:10012000B7010008B7010008AB050008B7010008D7
:10013000B7010008B701000800000000000000003F
:10014000B7010008B7010008B7010008000000006F
:10015000000000000000000000000000000000009F
:100160000000000000000000B7010008B70100080F
:10017000B7010008000000000000000000000000BF
:1001800000000000B7010008DFF80CD000F04AF8CA
:1001900000480047D12A0008889700200648804779
:1001A00006480047FEE7FEE7FEE7FEE7FEE7FEE75C
:1001B000FEE7FEE7FEE7FEE7672300088901000887
:1001C00040EA01039B0703D009E008C9121F08C0D9
:1001D000042AFAD203E011F8013B00F8013B521E59
:1001E000F9D27047D2B201E000F8012B491EFBD2D0
:1001F00070470022F6E710B513460A460446194632
:10020000FFF7F0FF204610BD10B54843044602F04A
:100210006FFD002805D00021002C02D0641E01557E
:10022000FAE710BD064C074D06E0E06840F0010318
:1002300094E8070098471034AC42F6D3FFF7A8FFC4
:10024000FC2D00081C2E000870B58D1810F8014B0D
:1002500014F0030201D110F8012B231106D110F87C
:10026000013B03E010F8016B01F8016B521EF9D15C
:10027000ABB110F8012B04F00C048A1A0C2C03D03B
:10028000A2EB84129B1C08E010F8014BA2EB0422A5
:10029000F8E712F8014B01F8014B5B1EF9D5A942B2
:1002A000D4D3002070BDFEE710B4B0FBF1F4012000
:1002B000188010804FF6FF71B3F800C0B4FBFCF05B
:1002C000884224BF01EA4C001880F5D2401E1080FD
:1002D0001888401E188010BC70472DE9F04784B084
:1002E0001E46DDE90D48DDF83CA0DDF830901746EC
:1002F0000546022C82BF012004B0BDE8F0872960CA
:1003000000F0AEF9E006010E2846D0473168B1F1A1
:10031000804F08BF24202BD0A1F18040B0F5806031
:1003200008BF0C2024D0A1F18040B0F5006008BFC8
:100330002C201DD0A1F18040B0F5805008BF0420D2
:1003400016D0A1F18040B0F5A05008BF14200FD006
:10035000A1F18040B0F5A03008BF1C2008D00020DB
:1003600002903A4601A9284600F044F910B1FEE790
:100370000190F4E701980C2806D10020C4F2010096
:10038000016841F080010160E000C0F110000090C0
:1003900043464A463946284600F077F9002804BF0C
:1003A00004B0BDE8F087FEE72DE9F0414FF480523C
:1003B000C4F202020746506986B00D4640F4003090
:1003C0005061506900F400300590D06940F0005051
:1003D000D061D06900F000500590506940F00200F3
:1003E000506150694FF0100800F00200CDF8008015
:1003F000059003200026CDE9010669464FF09040A4
:1004000000F005FB4FF48660C4F2020044F2BC1415
:10041000C2F20004C4E900088020C4E90260202D73
:1004200006D0102D09D0082D04BF2661666109E0B1
:100430004FF400702061800003E04FF48070206171
:10044000800060612020A0610002E06144F2BC10E5
:10045000C2F2000000F026FABC60002211463A20E9
:10046000676200F06BFC3A2000F05CFC06B0BDE86F
:10047000F0812DE9F0414FF48052C4F202020746A8
:10048000506986B00D4640F400305061506900F468
:1004900000300590D06940F00050D061D06900F084
:1004A00000500590506940F00200506150694FF0D3
:1004B000200800F00200CDF80080059003200026FF
:1004C000CDE9010669464FF0904000F0A0FA40F2F5
:1004D0004440C4F2020044F27814C2F200042060E6
:1004E0001020C4E901068020E060202D06D0102DE8
:1004F00009D0082D04BF2661666109E04FF4007041
:100500002061800003E04FF4807020618000606112
:100510004FF40050C4E9068044F27810C2F20000A3
:1005200000F0C0F9FC60676206B0BDE8F08110B56C
:10053000446A204600F085F80120207110BD10B5F6
:10054000446A204600F053F80120207110BD10B518
:10055000446A206940F004002061204600F07FF8E2
:100560000120207110BD10B5446A206940F00400DC
:100570002061204600F03DF80120207110BD406A46
:1005800000F06CB810B5406A00F032F810BD44F2CB
:10059000B400C2F20000006E00F01EB944F2B400D4
:1005A000C2F20000406E00F017B944F22410C2F20B
:1005B0000000806800F010B970470D460446012D18
:1005C00003D0642000F00FFAF9E7204642F6E45128
:1005D000C0F600010A4612F8013F002BFBD1521A67
:1005E00092B201F06AFE642000F0FDF9EDE7704779
:1005F000704770474379012B04BF0220704730B425
:100600004FF0010C80F805C00223037103681C68D9
:1006100040F6FE759540AC43D1E900512943914025
:100620002143196001680B68C02404FA02F223EA2E
:1006300002020A6080F804C00021417130BC084603
:10064000704740F20000C2F200004178002908BF64
:100650007047002141700121017070477047704759
:10066000002804BF0120704770B5044600790025BA
:1006700018B96571204600F007F802202071256145
:1006800001202071002070BD70472DE9F041044623
:100690000D469446617900220698012904BF022084
:1006A000BDE8F0810126667102212171002D3BD049
:1006B00040F23F51C0F60001E768B96240F285514F
:1006C000C0F60001E768F96240F26751C0F6000128
:1006D000E768396321680F6847F080570F6000288A
:1006E00004BF206800F114020AD0042804BF206867
:1006F00000F1180204D0082804BF206800F11C0291
:100700002068016841F0005101606146E06800F036
:100710001FF9002060712068016806FA05F2114394
:1007200001600020BDE8F08140F22F51C0F60001C9
:10073000A768B96240F27F51C0F60001A768F9626C
:1007400040F24F51C0F60001A768396321680F6875
:1007500047F480570F60002804BF206800F10802AA
:100760000AD0042804BF206800F10C0204D0082835
:1007700004BF206800F110022068016841F40051B4
:1007800001606146A06800F0E3F8C2E710B590F898
:1007900021100024022903D004218163012419E0DF
:1007A00001680A6822F00E020A6001680A6822F0F5
:1007B00001020A6090F84020C36B012101FA02F2A5
:1007C0005A6080F82110002180F82010416B002928
:1007D00018BF8847204610BDF0B4C16BD1F800C0E7
:1007E00001680B68046C042202FA04F515EA0C0F88
:1007F00018BF13F0040F12D00B6813F0200F03D1B1
:100800000B6823F004030B6090F8401002FA01F12A
:10081000C26B5160C16A002942D1F0BC7047022608
:1008200006FA04F212EA0C0F4FF000054FF0010235
:1008300018BF13F0020F15D00B6813F0200F05D16D
:100840000B6823F00A030B6080F8212090F8401019
:10085000C26B06FA01F1516080F82050816AF9B943
:10086000F0BC7047082606FA04F414EA0C0F12BF15
:1008700013F0080FF0BC70470B6823F00E030B60F9
:1008800090F84010C36B02FA01F15960826380F85E
:10089000212080F82050016B002904BFF0BC704774
:1008A000F0BC0847002804BF0120704710B40221A3
:1008B00080F8211002681168D0E9013C43EA0C037A
:1008C000D0E903C44CEA040C43EA0C03D0F814C08A
:1008D0006FF30D1143EA0C03D0F818C043EA0C0380
:1008E000D0F81CC043EA0C03194311604FF4816334
:1008F0000168C4F202034CF6CD42CCF6CC429942D8
:100900000DD24FF6F873CBF6FD731944A2FB01210B
:100910000909890001640021C4F202010DE04FF6CB
:10092000F833CBF6FD731944A2FB012109098900B4
:1009300001644FF48061C4F20201C163002181634C
:10094000012280F8212080F8201010BC0846704752
:1009500070B490F820404FF0000C012C02BF022030
:1009600070BC7047012480F8204090F82160002579
:10097000012E1CBF80F820504FF0020C02D070BC3A
:1009800060467047022680F82160856305682E68FE
:1009900026F001062E6090F84050AC40C56B6C60AC
:1009A000046863604368102B036803BF9A600268A1
:1009B000D16099601CBF0168CA60C16A00290168E2
:1009C0000A6818BF42F00E0206D142F00A020A601D
:1009D00001680A6822F004020A600068016841F0B8
:1009E00001010160CBE770B5044600F01DF9054632
:1009F000B4F1FF3F05D044F2A000C2F2000000783D
:100A0000044400F011F9401BA042FAD370BD0B68FA
:100A10000022002B08BF70472DE9F84F4FF4805695
:100A20004FF4806E01274FF0030A4FF00F08C4F215
:100A30000206C4F2010E0B6807FA02F52B407ED0C5
:100A4000D1F804C0BCF1020F18BFBCF1120F15D1D0
:100A50004FEAD20C00EB8C04D4F820904FEA427C91
:100A60004FEADC6C08FA0CFB29EA0B09D1F810B04C
:100A70000BFA0CFC4CEA090CC4F820C0D0F800902A
:100A80004FEA420C91F804B00AFA0CF40BF0030B95
:100A900029EA04090BFA0CFB4BEA0909C0F800909B
:100AA000D1F80490B9F1010F18BFB9F1020F05D0C8
:100AB000B9F1110F18BFB9F1120F18D1D0F8089081
:100AC000D1F80CB029EA04090BFA0CFB4BEA09092E
:100AD000C0F80890D0F8049029EA050591F8049030
:100AE000C9F3001909FA02F949EA05054560C56824
:100AF00025EA04048D6805FA0CFC4CEA040CC0F8E5
:100B00000CC0D1F804C01CF0805F18D0D6F818C013
:100B10004CF0010CC6F818C0D6F818C00CF0010C47
:100B2000CDF800C022F0030C0CF1804505F58035AE
:100B3000D5F808C04FEA82744FEA147400E06CE004
:100B400008FA04F92CEA090CB0F1904F08BF4FF0F5
:100B5000000920D0A0F19049B9F5806908BF4FF095
:100B6000010918D0A0F19049B9F5006908BF4FF00C
:100B7000020910D0A0F19049B9F5406908BF4FF0C3
:100B8000030908D0A0F19049B9F580590CBF4FF086
:100B900004094FF0050909FA04F444EA0C0CC5F8FD
:100BA00008C0DEF800C04C682CEA030C14F4803F47
:100BB00018BF4CEA030CCEF800C040F20444C4F263
:100BC0000104D4F800C04D682CEA030C15F4003F72
:100BD00018BF4CEA030CC4F800C04FF48164C4F29F
:100BE0000104D4F800C04D682CEA030C15F4801FF2
:100BF00018BF4CEA030CC4F800C040F20C44C4F225
:100C00000104D4F800C04D682CEA030C15F4001F51
:100C100018BF4CEA030CC4F800C00B68521CD34048
:100C20007FF409AFBDE8F88F44F2A000C2F20000E3
:100C30008068704744F2A000C2F200008168027828
:100C40001144816070474FF4005010B5C4F20200A7
:100C5000016841F010010160032000F0A2F80F20AC
:100C600000F004F800F023F8002010BD70B5044631
:100C700044F2A005C2F2000528784FF47A71B1FB66
:100C8000F0F044F29401C2F200010968B1FBF0F007
:100C900000F027FE48B9102C07D200222146501E32
:100CA00000F04CF800206C6070BD012070BD4FF466
:100CB000805008B5C4F20200816941F001018161F0
:100CC000816901F001010091C16941F08051C16168
:100CD000C06900F080500090072000F062F8002208
:100CE00011466FF00B0000F029F8002211466FF05A
:100CF0000A0000F023F8002211466FF0090000F00E
:100D00001DF800221146501F00F018F8002211466D
:100D1000101F00F013F80022BDE808401146901E95
:100D200000F00CB800F01F01012202FA01F14009A5
:100D3000800000F1E020C0F8001170474EF60C531F
:100D400010B4CEF200031B68C3F30223C3F1070CF7
:100D5000BCF1040F88BF4FF0040C1C1D072C34BFDE
:100D60000023DB1E012404FA0CFCACF1010C0CEA9C
:100D70000101994004FA03F35B1E1A401143002855
:100D80004FEA0111A1BF00F1E02080F8001410BC6F
:100D9000704700F00F0000F1E02080F8141D10BC37
:100DA00070474EF60C51CEF2000100F007000A68C1
:100DB0004FF6FF031A4042EA002040F0FD7040F079
:100DC0008060086070474EF61050CEF20000026856
:100DD00022F004020260012904BF30BF704740BF07
:100DE00020BF20BF70472DE9F84F044600684FF43C
:100DF000805510F4803FC4F202057DD0E8694FF0C1
:100E0000000910F0805F09D1E86940F08050E86186
:100E1000E8694FF0010900F0805000904FF4E0477E
:100E2000C4F20007386810F4807F13D1386840F4AA
:100E300080703860FFF7F8FE0646386810F4807F4F
:100E400008D1FFF7F1FE801B64285AD8386810F4E7
:100E5000807FF6D0286A10F4407055D0A18801F444
:100E60004071814250D0286A0127390491FAA1F2D9
:100E7000B2FA82F2920002F1844202F5840220F476
:100E80004070C2F8007491FAA1F10022B1FA81F128
:100E9000890001F1844101F58401C1F80024286230
:100EA00010F0010F30D0FFF7BFFE8046022641F25E
:100EB000883A96FAA6F0B0FA80F040F04000B7EB1E
:100EC000501F08BF28680AD096FAA6F0B0FA80F042
:100ED00040F04000B6EB501F0CBF286A686A96FAD3
:100EE000A6F1B1FA81F101F01F0107FA01F1084200
:100EF0000AD1FFF799FE00E013E0A0EB080050458F
:100F0000D7D90320BDE8F88F286A616820F44070C3
:100F100008432862B9F1000F03D0E86920F080503F
:100F2000E861207810F0010F05D0286BA16820F04F
:100F3000030008432863207810F0020F05D0286BC7
:100F4000E16820F4403008432863207810F0040F53
:100F500005D0286B216920F44020084328632078BD
:100F600010F0200F05D0286BE16920F01000084335
:100F70002863206810F4003F05D06868A16B20F456
:100F8000800008436860207810F0400F05D0286B7F
:100F9000216A20F0200008432863207810F0080F11
:100FA00005D0286B616920F440100843286320783D
:100FB00010F0100F05D0286BA16920F44000084301
:100FC0002863208810F4007F05D06868E16A20F467
:100FD000000008436860207810F0800F05D0E86AB0
:100FE000616A20F4F8700843E862208810F4807F7A
:100FF00005D0E86AA16A20F478500843E8622088A6
:1010000010F4805F05D0286B216B20F480700843BA
:101010002863208810F4005F05D0286B616B20F4F2
:101020000070084328630020BDE8F88F002804BF43
:10103000012070472DE9F0474FF40057C4F2020732
:1010400005463868884600F0070040450AD23868EF
:1010500020F0070040EA08003860386800F0070018
:10106000404571D128784FF4805410F0020FC4F23B
:10107000020405D06068A96820F0F00008436060B1
:10108000287810F0010F67D06868012101282FD05F
:10109000022843D0022393FAA3F2B2FA82F242F07A
:1010A000200252090CBF626A226893FAA3F3B3FAD2
:1010B00083F303F01F0399400A425DD0616821F079
:1010C000030108436060FFF7AFFD0646606869688A
:1010D00000F00C00B0EB810F18BF41F288393BD013
:1010E000FFF7A2FD801B48452FD90320BDE8F087FC
:1010F0004FF4003393FAA3F2B2FA82F242F02002E4
:10110000520914BF2268626A93FAA3F3B3FA83F315
:1011100003F01F0399400A422ED0CFE74FF000732F
:1011200093FAA3F2B2FA82F242F02002520914BFFB
:101130002268626A93FAA3F3B3FA83F303F01F03FE
:1011400099400A4218D0B9E716E0606800F00C0137
:101150006868B1EB800FC3D1386800F007004045E4
:101160000DD9386820F0070040EA08003860386878
:1011700000F00700404502D00120BDE8F087287844
:1011800010F0040F05D06068E96820F4E0600843BF
:101190006060287810F0080F06D06068296920F494
:1011A000605040EAC100606061684FF4905001F007
:1011B0000C02C0F27A00042A01D0082A19D0616812
:1011C000F02292FAA2F201F0F001B2FA82F2D140DA
:1011D00042F6AA52C0F60002515CC84044F29401A3
:1011E000C2F2000108600F20FFF740FD0020BDE8BB
:1011F000F0874FF4701393FAA3F301F47012B3FA6B
:1012000083F3DA4042F6C253C0F600039A5CE36A05
:101210004FF00F0C9CFAACFC03F00F03BCFA8CFCF3
:1012200023FA0CF342F6D25CC0F6000C1CF8033033
:1012300011F4803F19BFB0FBF3F050434FF410603E
:10124000C0F23D0008BF5043B9E744F29400C2F237
:1012500000004FF48051C4F20201006849684FF465
:10126000E06292FAA2F201F4E061B2FA82F2D140B5
:1012700042F6BA52C0F60002515CC840704744F2D0
:101280009400C2F200004FF48051C4F202010068E1
:1012900049684FF4605292FAA2F201F46051B2FA36
:1012A00082F2D14042F6BA52C0F60002515CC84008
:1012B00070474FF48053C4F2020359684FF49050C2
:1012C00001F00C02C0F27A00042A08BF7047082A15
:1012D00018BF704701F470124FF4701C9CFAACFCFC
:1012E000BCFA8CFC22FA0CF242F6C25CC0F6000C8E
:1012F0001CF80220DB6A4FF00F0C9CFAACFC03F0E8
:101300000F03BCFA8CFC23FA0CF342F6D25CC0F655
:10131000000C1CF8033011F4803F19BFB0FBF3F050
:1013200050434FF41060C0F23D0008BF5043704777
:10133000002804BF012070472DE9F84F04460078CB
:101340004FF4805510F0010FC4F202054FF0010672
:1013500026D06868770400F00C00042808D068687C
:1013600000F00C00082861D1686810F4803F5DD05F
:1013700097FAA7F0B0FA80F040F02000400914BFBF
:101380002868686A97FAA7F1B1FA81F101F01F01A4
:1013900006FA01F1084203D06068002800F09B8241
:1013A00020784FF0000910F0020F4FF0020779D0BB
:1013B00068684FF0F80A10F00C0F74D0686800F0FD
:1013C0000C00082804BF686810F4803F6BD02069C7
:1013D000002896FAA6F0B0FA80F04FEA800000F1FB
:1013E000844000F5840000F0ED800660FFF71CFCEF
:1013F0004FEA000897FAA7F0B0FA80F040F020001A
:10140000400914BF2868686A97FAA7F1B1FA81F118
:1014100001F01F0106FA01F108426ED1FFF704FC4A
:10142000A0EB08000228E5D900F003BA6068B0F527
:10143000803F04BF286840F480300AD010B1B0F576
:10144000A02F31D0286820F480302860286820F44C
:1014500080202860E86AA16820F00F000843E86255
:10146000606848B3FFF7E0FB4FEA000897FAA7F07F
:10147000B0FA80F040F02000400914BF2868686A84
:1014800097FAA7F1B1FA81F101F01F0106FA01F113
:10149000084285D1FFF7C8FBA0EB08006428E5D916
:1014A00000F0C7B94FE029E0286840F480202860A8
:1014B000286840F48030CCE7FFF7B6FB4FEA00081D
:1014C00097FAA7F0B0FA80F040F02000400914BF6E
:1014D0002868686A97FAA7F1B1FA81F101F01F0153
:1014E00006FA01F108423FF45BAFFFF79DFBA0EB6A
:1014F00008006428E4D900F09CB917E097FAA7F037
:10150000B0FA80F040F02000400914BF2868686AF3
:1015100097FAA7F1B1FA81F101F01F0106FA01F182
:1015200008421CBF2069012840F0D58128689AFA3A
:10153000AAF26169B2FA82F220F0F80001FA02F12F
:1015400040EA01002860207810F0080F7DD0A069E3
:10155000002896FAA6F0B0FA80F04FEA800000F179
:10156000844000F584004FD0C0F88064FFF75CFB36
:101570004FEA000897FAA7F0B0FA80F040F0600058
:10158000B6EB501F08BF28680AD097FAA7F0B0FA48
:1015900080F040F06000B7EB501F0CBF286A686A0B
:1015A00097FAA7F1B1FA81F101F01F0106FA01F1F2
:1015B000084258D1FFF738FBA0EB08000228D9D920
:1015C00000F037B9C0F80090FFF72EFB4FEA000893
:1015D00097FAA7F0B0FA80F040F02000400914BF5D
:1015E0002868686A97FAA7F1B1FA81F101F01F0142
:1015F00006FA01F10842A6D0FFF716FBA0EB08009F
:101600000228E5D900F015B9C0F88094FFF70CFB6B
:101610004FEA000897FAA7F0B0FA80F040F06000B7
:10162000B6EB501F08BF28680AD097FAA7F0B0FAA7
:1016300080F040F06000B7EB501F0CBF286A686A6A
:1016400097FAA7F1B1FA81F100E00CE001F01F0177
:1016500006FA01F1084206D0FFF7E6FAA0EB08000F
:101660000228D7D9E5E0207810F0040F71D0E8699E
:101670004FF0000B10F0805F09D1E86940F0805016
:10168000E861E8694FF0010B00F0805000904FF4E2
:10169000E048C4F20008D8F8000010F4807F18D1A8
:1016A000D8F8000040F48070C8F80000FFF7BCFADA
:1016B0008246D8F8000010F4807F0AD1FFF7B4FA10
:1016C000A0EB0A00642843D8D8F8000010F4807F0B
:1016D000F4D0E068012804BF286A40F0010009D076
:1016E00008B1052837D0286A20F001002862286A4E
:1016F00020F004002862E06841F2883A50B3FFF716
:1017000093FA804697FAA7F0B0FA80F040F04000D4
:10171000B6EB501F08BF28680AD097FAA7F0B0FAB6
:1017200080F040F04000B7EB501F0CBF286A686A99
:1017300097FAA7F1B1FA81F101F01F0106FA01F160
:1017400008423AD1FFF770FAA0EB08005045D9D90A
:101750006FE039E007E0286A40F004002862286A58
:1017600040F00100C6E7FFF75FFA804697FAA7F05E
:10177000B0FA80F040F04000B6EB501F08BF286878
:101780000AD097FAA7F0B0FA80F040F04000B7EB2B
:10179000501F0CBF286A686A97FAA7F1B1FA81F165
:1017A00001F01F0106FA01F1084206D0FFF73CFAEA
:1017B000A0EB08005045D9D93BE0BBF1000F03D0A6
:1017C000E86920F08050E861E069A8B3696801F039
:1017D0000C0108297FD04FF0807A02289AFAAAF0EB
:1017E000B0FA80F04FEA800000F1844000F58400F8
:1017F0004FF00077C0F800901FD0FFF715FA0446AD
:1018000097FAA7F0B0FA80F040F02000400914BF2A
:101810002868686A97FAA7F1B1FA81F101F01F010F
:1018200006FA01F1084259D0FFF7FEF9001B022821
:10183000E6D90320BDE8F88F50E0FFF7F5F98046C0
:1018400097FAA7F0B0FA80F040F02000400914BFEA
:101850002868686A97FAA7F1B1FA81F101F01F01CF
:1018600006FA01F1084206D0FFF7DEF9A0EB080006
:101870000228E5D9DDE7D4E908100843696821F4B6
:101880007411084368609AFAAAF0B0FA80F08000F8
:1018900000F1844000F584000660FFF7C5F90446B6
:1018A00097FAA7F0B0FA80F040F02000400914BF8A
:1018B0002868686A97FAA7F1B1FA81F101F01F016F
:1018C00006FA01F1084209D1FFF7AEF9001B022820
:1018D000E6D9AEE7FFE70120BDE8F88F0020BDE8BC
:1018E000F88F411EB1F1807F24BF012070474FF077
:1018F000E02041614EF20F02CEF20002F02182F8A8
:10190000141D00218161072101610020704770478B
:101910007047704790F83C20012A04BF02207047AE
:1019200010B4012280F83C2002685368D2F808C045
:10193000A2F18044B4F596341CBFA2F18044B4F502
:101940009A3403D14C6823F4700323430C6823F0CA
:101950007003896823432CF0800C41EA0C0153602A
:1019600002689160002180F83C1010BC0846704766
:10197000002804BF0120704710B5044690F83D00D0
:1019800028B9002084F83C00204600F00CF8022022
:1019900084F83D00211D206800F024FD012084F81A
:1019A0003D00002010BD01684FF48050A1F180423D
:1019B00081B0C4F20200B2F5963236D0B1F1804F58
:1019C00043D0A1F18042B2F5806236D0A1F18042CD
:1019D000B2F5006241D0A1F18042B2F5805244D00C
:1019E000A1F18042B2F5A05247D0A1F18042B2F5F8
:1019F0009A324AD0A1F18042B2F5A0324DD0A1F185
:101A00008042B2F5A23250D0A1F18042B2F5A432A8
:101A10001CBF01B07047816941F4802181618069F8
:101A200000F48020009001B07047816941F40061AA
:101A30008161806900F40060F4E7C16941F002014E
:101A4000C161C06900F00200ECE7C16941F0010129
:101A5000C161C06900F00100E4E7C16941F004011F
:101A6000C161C06900F00400DCE7C16941F0100108
:101A7000C161C06900F01000D4E7C16941F02001E4
:101A8000C161C06900F02000CCE7816941F40051D8
:101A90008161806900F40050C4E7816941F48031BC
:101AA0008161806900F48030BCE7816941F40031D4
:101AB0008161806900F40030B4E7022180F83D10B4
:101AC00001680A6842F001020A60012180F83D10B5
:101AD0000020704790F83C20012A0DBF022001230E
:101AE00080F83C30704730B4022280F83D20026814
:101AF000D2F808C02CF0770C2CF4803C2CF47F4CEE
:101B0000C2F808C00A68502A47D00CDC202A7DD0D1
:101B100004DC002A7BD0102A7AD0B7E0302A78D0B3
:101B2000402A78D0B2E0602A54D0702A0DD0B2F5A5
:101B3000805F03D0B2F5005F1DD0A7E001688A681E
:101B400022F0070222F4803242E00268D1F804C099
:101B50008C68C96895684CEA012125F47F452143CA
:101B60002943916001688A6822F0770222F480326A
:101B700042F077022CE00268D1F804C08C68C96892
:101B800095684CEA012125F47F4521432943916062
:101B900001688A6842F480421AE00268D1F804C001
:101BA000C968146A156A25F001051562956924F063
:101BB0000A0425F0F00545EA011144EA0C0C916194
:101BC000C2F820C001688A6822F0700242F0570211
:101BD0008A605BE00268D1F804C0CC68116A21F029
:101BE000100111629569116A25F4704545EA0434C3
:101BF00021F0A00141EA0C119461116201688A6828
:101C000022F0700242F067028A603FE02FE01EE09F
:101C100025E034E0FFE70268D1F804C0CC68116A1F
:101C2000156A25F001051562956921F00A0125F074
:101C3000F00545EA041441EA0C019461116201685F
:101C40008A6822F0700242F047028A601EE0016852
:101C50008A6822F0700242F007028A6016E001688A
:101C60008A6822F0700242F017028A600EE0016872
:101C70008A6822F0700242F027028A6006E001685A
:101C80008A6822F0700242F037028A6080F83D30A4
:101C9000002180F83C1030BC08467047704770B592
:101CA0000446006801694FF0000511F0020F1CBFE7
:101CB000C16811F0020F13D06FF002010161012021
:101CC00020772068806910F0030F204602D0FFF7CC
:101CD000E5FF04E000F0A8F8204600F0A6F825771C
:101CE0002068016911F0040F1CBFC16811F0040FD6
:101CF00013D06FF004010161022020772068806911
:101D000010F4407F204602D0FFF7C8FF04E000F047
:101D10008BF8204600F089F825772068016911F0DA
:101D2000080F1CBFC16811F0080F13D06FF0080135
:101D30000161042020772068C06910F0030F20465D
:101D400002D0FFF7ABFF04E000F06EF8204600F091
:101D50006CF825772068016911F0100F1CBFC1686D
:101D600011F0100F13D06FF01001016108202077DF
:101D70002068C06910F4407F204602D0FFF78EFF34
:101D800004E000F051F8204600F04FF82577206875
:101D9000016911F0010F1CBFC16811F0010F05D0DE
:101DA0006FF001010161204600F040F820680169F0
:101DB00011F0800F1CBFC16811F0800F05D06FF0CB
:101DC000800101612046FFF7A3FD2068016911F43D
:101DD000807F1CBFC16811F0800F05D06FF4807147
:101DE00001612046FFF793FD2068016911F0400F63
:101DF0001CBFC16811F0400F05D06FF040010161B8
:101E0000204600F01CF82068016911F0200F1ABF6D
:101E1000C16811F0200F70BD6FF0200101612046F4
:101E2000BDE87040FFF775BD7047704740F614007D
:101E3000C4F60000016881F40071016070477047CA
:101E40007047704770B501680446C8690A6810F0A9
:101E50000F0F4FF020054DD08B6802F4907603F001
:101E6000010C5CEA060651D010F0010F18BF12F405
:101E7000807F05D001260E62E16E41F00101E1662E
:101E800010F0020F18BF13F0010F06D026680221D0
:101E90003162E16E41F00401E16610F0040F18BFF9
:101EA00013F0010F06D0236804211962E16E41F09E
:101EB0000201E16610F0080F1CBF02F0200151EA98
:101EC0000C0106D0236808211962E16E41F0080177
:101ED000E166E16E002908BF70BD10F0200F1EBF43
:101EE00012F0200F204600F03DFCE06E10F0080FCD
:101EF00023D11DE010F0200F14BF12F0200F8B68CB
:101F000004D02046BDE8704000F02CBC10F4801FC7
:101F100018BF13F4800F41D04FF48010086284F88A
:101F2000695084F86A502046BDE87040FFF788BFCA
:101F30002068806810F0400F2AD02068016821F4E2
:101F4000907101602068816821F00101816084F84E
:101F50006A502068816811F0400F15D0816821F027
:101F600040018160606E78B142F21761C0F60001F5
:101F70004163606EFEF70AFC002808BF70BD606E0A
:101F8000416BBDE8704008472046FFF75AFF70BD1F
:101F90002046FFF756FF0020E06670BD10F0800F6E
:101FA00018BF12F0800F2FD094F86900212818BFB5
:101FB00070BDB4F85200A0B1A068B0F5805F04BF56
:101FC00020690028E06C16D000F10101E16421686D
:101FD00000780885B4F85200A0F10100A4F852007E
:101FE00070BD086820F0800008602068016841F03A
:101FF0004001016070BD0088C0F308000885E06CF6
:1020000000F10200E064E5E710F0400F14BF12F0A9
:10201000400F70BD20460A6822F040020A6084F832
:10202000695000F091F970BD002804BF012070478D
:1020300010B5044690F8690028B9002084F86800BB
:10204000204600F028F8242084F869002068016800
:1020500021F001010160204600F0C5FB012808BF06
:1020600010BD606A00281CBF204600F037FA2068C7
:10207000416821F4904141602068816821F02A0183
:1020800081602068016841F0010101602046BDE8DF
:10209000104000F090BAF0B54FF48051C4F2020144
:1020A0000646486987B040F400304861486900F44A
:1020B00000300590486940F400304861486900F4F8
:1020C00000300590886940F480408861886900F498
:1020D00080400590486940F0010048614869072444
:1020E00000F00100059048150090022001900120A9
:1020F00002900320CDE9030469464FF09040FEF7BB
:1021000086FC4FF480600090694604944FF0904044
:10211000FEF77DFC4420C4F2020044F20025C2F226
:102120000005286010200024C5E901048027C5E9C6
:1021300003746C61AC612846EC61FEF7B3FB356655
:102140006E6258204435C4F20200C5E90004C5E9B6
:1021500002472C61B8016C61C5E906402846FEF7CC
:10216000A1FB7566012211460E206E62FEF7E6FDA8
:102170000E20FEF7D7FD002201210F20FEF7DEFD25
:102180000F20FEF7CFFD022201212520FEF7D6FD0C
:102190002520FEF7C7FD07B0F0BD70B5044690F8E6
:1021A0006A00202844D1002912BF002A012070BDF6
:1021B00094F8680001283BD0012084F8680061652C
:1021C000A4F858200025E566222084F86A0042F22F
:1021D0009760C0F60000616E886242F2D760C0F678
:1021E0000000616EC86242F22B60C0F60000616EB2
:1021F00013460863606E45632068D4F854C000F14C
:1022000024016246606EFEF7A3FB84F868502068E4
:10221000016841F4807101602068816841F001012A
:1022200081602068816841F040018160002070BDBC
:10223000022070BDF0B444F29B02C2F2000292F898
:1022400000C00024012340F20001C2F20001BCF1F1
:10225000440F0ED0BCF1460F20D0BCF14D0F08BF8B
:102260008B7021D0BCF1530F02BF0A78002A0B708B
:102270001AE0B1F80CC00E69557806F80C504D699B
:10228000927805F80C200CF1010292B28A81B1F823
:1022900006C0624504BF8C814B7005E0B2F8012096
:1022A0008C8152BACA80CB70032244F29B01C2F2E5
:1022B0000001F0BCFFF771BF704770B5044690F89D
:1022C000690020283ED1002912BF002A012070BDDC
:1022D00094F86800012835D0012084F86800E16492
:1022E000A4F85020A4F852200025E566212084F8A7
:1022F000690042F2E160C0F60000216E886242F29D
:102300001370C0F60000216EC86242F22B60C0F666
:102310000000216E13460863206E45632068E16C5F
:1023200000F1280C6246206EFEF712FB2168402067
:10233000086284F868502068816841F080018160FB
:10234000002070BD022070BD032244F29B01C2F246
:102350000001FFF722BF7047FEE7FEE770477047B6
:102360007047FEF767BC4EF68850CEF20000016859
:1023700041F4700101604FF48050C4F20200016822
:1023800041F00101016041684CF20C02CFF67F027E
:1023900011404160016821F4102121F08071016039
:1023A000016821F480210160416821F4FE0141604F
:1023B000C16A21F00F01C162016B4FF6CC42CFF62A
:1023C000007211400163002181604EF60851CEF287
:1023D0000001C0030860704744F23810C2F20000E8
:1023E000FFF75DBC2DE9F00102684FF43053C4F2F1
:1023F00001034FF480654FF400684FF4505CC4F261
:102400000005C4F20008C4F2010C984218BFB0F1F4
:10241000804F04D0A8421CBF4045604504D14C68A1
:1024200022F0700244EA02024FF480444FF48846DE
:102430004FF49047C4F20104C4F20106C4F201074C
:10244000984218BFB0F1804F0BD0A84218BF40454A
:1024500007D0604518BFA04203D0B04218BFB842B1
:1024600004D1CD6822F4407245EA02024D6922F09F
:10247000800242EA050202608A68C2620A688262D9
:10248000984218BF604504D0A0421CBFB042B84279
:1024900001D1096901634FF001014161BDE8F0011B
:1024A000704730B589B0044600250160C4E90325B2
:1024B000C4E9013545618561FFF75AFA4FF4805050
:1024C000049004A92046FFF705FB202000906946F0
:1024D00002952046FFF71EFA09B030BD90F824108F
:1024E00011F0010F06D001684A68836A22F40032B5
:1024F0001A434A6090F8241011F0020F06D00168C8
:102500004A68C36A22F480321A434A6090F8241061
:1025100011F0040F06D001684A68036B22F4802290
:102520001A434A6090F8241011F0080F06D0016891
:102530004A68436B22F400421A434A6090F8241020
:1025400011F0100F06D001688A68836B22F4805264
:102550001A438A6090F8241011F0200F06D0016809
:102560008A68C36B22F400521A438A6090F82410E0
:1025700011F0400F11D001684A68036C22F48012F8
:102580001A434A60016CB1F5801F06D101684A68A0
:10259000436C22F4C0021A434A6090F8241011F0F0
:1025A000800F08BF704701684A68806C22F40022DF
:1025B000104348607047F8B500250446C566FEF72D
:1025C00033FB0746206800686FF07E4610F0080F66
:1025D00008D03B4600224FF400112046009600F040
:1025E00026FA68B92068006810F0040F0AD03B464C
:1025F00000224FF480012046009600F018FA08B13E
:102600000320F8BD202084F8690084F86A0084F86B
:1026100068500020F8BD10B5406A0021A0F85A109B
:10262000A0F85210FFF70DFC10BD10B5406A90F8ED
:1026300069100022202321290FD10168896811F037
:10264000800F0AD0A0F852200168D1F800C02CF009
:10265000C00CC1F800C080F8693090F86A102229D7
:1026600012D10168D1F808C01CF0400F0CD0A0F8BE
:102670005A200A6822F490720A6001688A6822F07F
:1026800001028A6080F86A30C16E41F01001C166B3
:10269000FFF7D7FB10BD10B50146406A096809680D
:1026A00011F0200F14D10021A0F85A1001680A6817
:1026B00022F480720A6001688A6822F001028A604E
:1026C00001688A6822F040028A60202180F86A103E
:1026D000FFF7B0FD10BD10B5406AFFF7EDFD10BD6E
:1026E00010B50146406A0968096811F0200F02D050
:1026F000FFF72AFE10BD0021A0F8521001688A6879
:1027000022F080028A600068016841F040010160A7
:1027100010BD10B5406AFFF71EFE10BD10B504468F
:102720004FF46050C4F20100C4E900010020A06031
:10273000E0602061A0610C20606144F29B00C2F265
:1027400000006065C01EE0642046FFF76DFC0322B8
:1027500044F29B01C2F200012046BDE81040FFF7A1
:102760001CBD000010B5B0F85C2090F86A3001681C
:10277000222B05D0886940F008008861022010BD36
:10278000898C8368B3F5805F04BF0369002B23D075
:1027900001EA0202416D01F10103436581F8002065
:1027A000B0F85A10A1F101010904090CA0F85A105F
:1027B0001CBF002010BD01680A6822F490720A60F4
:1027C00001688A6822F001028A60202180F86A107C
:1027D000FFF730FD002010BD436D11401980416DA1
:1027E000891C4165DCE770B5044610202369A268A6
:1027F000D4F81CC01A436369002143EA0C03134355
:1028000022680D46D2F800C02CF4037C2CF4144C42
:102810004CEA0303136022685368D4F80CC023F415
:10282000405343EA0C035360236AA26913432268AE
:10283000D2F808C02CF4306C4CEA03039360226891
:102840004FF48053A2F1804CC4F20203BCF59C3CCF
:1028500014D0A2F1804CBCF5884C1CD0A2F1804C65
:10286000BCF5904C25D0A2F1804CBCF5984C2ED0F4
:10287000A2F1804CBCF5A04C37D04BE01B6B13F0A1
:10288000030308BF012045D0012B40D0022B40D0CC
:10289000032B3AD03EE01B6B13F4403333D0B3F537
:1028A000803F34D0B3F5003F33D0B3F5403F2CD058
:1028B00030E01B6B13F4402325D0B3F5802F26D0D6
:1028C000B3F5002F25D0B3F5402F1ED022E01B6BAF
:1028D00013F4401317D0B3F5801F18D0B3F5001FC1
:1028E00017D0B3F5401F10D014E01B6B13F4400356
:1028F00009D0B3F5800F0AD0B3F5000F09D0B3F5B6
:10290000400F02D006E0002004E0022002E0042094
:1029100000E00820E369B3F5004F07D0092878D21A
:1029200042F61C61C0F60001D1E800F0092837D258
:1029300042F62562C0F60002D2E800F0FEF785FC00
:102940004100606801EB5001B1FBF0F081B228E07A
:10295000FEF795FC4100606801EB5001B1FBF0F01F
:1029600081B21EE04FF410516068C0F2F40101EB37
:102970005001B1FBF0F081B213E0FEF79AFC410088
:10298000606801EB5001B1FBF0F081B209E06068D2
:102990004FF4803101EB5001B1FBF0F081B200E067
:1029A000012521F00F00C1F3420108432168C860EE
:1029B0003BE0FEF74AFC0146606801EB5001B1FBC9
:1029C000F0F0216880B2C8602FE0FEF758FC0146A5
:1029D000606801EB5001B1FBF0F0216880B2C86083
:1029E00023E04FF490516068C0F27A0101EB50018E
:1029F000B1FBF0F080B2D06017E0FEF75AFC014660
:102A0000606801EB5001B1FBF0F0216880B2C86052
:102A10000BE009E060684FF4004101EB5001B1FBAD
:102A2000F0F080B2D06000E00125284670BD2DE9AD
:102A3000F04104460068069F9846C06915460E4658
:102A400031EA00000CBF01200020A84227D1B7F1D5
:102A5000FF3F1BD02FB1FEF7E7F8A0EB0800B8420C
:102A600014D92068016821F4D07101602068816860
:102A700021F001018160202084F8690084F86A0057
:102A8000002084F868000320BDE8F0812068C06958
:102A900036EA00000CBF01200020A842D7D0002059
:102AA000BDE8F08144F2B400C2F20000FFF7CAB9F9
:102AB000FEE702E008C8121F08C1002AFAD17047D9
:102AC0007047002001E001C1121F002AFBD17047AE
:102AD000A0B0FEF7B8F80025159516951A951B9528
:102AE0000195029512951395149506950795012663
:102AF0001C951D951E950B950C953004009503951E
:102B00000495CDE910600595089509950A950D95F0
:102B100002240E95CDE917404FF4E010199010A84B
:102B2000FEF706FC00B1FEE70F20CDE91A044FF4D2
:102B30008060CDE91C5002211AA81E95FEF776FA96
:102B400000B1FEE7684600960295FEF74CF900B129
:102B5000FEE7012142F21070FDF756FB40F200043F
:102B6000C2F200042061012142F21070FDF74CFB1B
:102B700060612169002918BF002807D14FF00101C9
:102B800044F2B400C2F20000FDF717FD42F23E022B
:102B900040F21801C2F200012069FDF711FB42F278
:102BA0003E0242F25601C2F200016069FDF708FBE5
:102BB00042F23E00E0804CF2C061E670C0F22D01AE
:102BC00044F2B400C2F20000FFF7A8FD40F20A038D
:102BD000C2F200034DF290019A1EC0F2030144F2CA
:102BE0009400C2F200000068FDF75EFB6389228951
:102BF0004FF0804144F23810C2F20000FFF751FC60
:102C000040F27341C0F6000142F2107744F23813EB
:102C1000C2F200032069CDE90271CDE900064FF44C
:102C2000E848C4F2000810224146A3F11400FDF761
:102C300054FB40F2A930C0F6000044F23813C2F24F
:102C400000036169CDE90016CDE90270002241461A
:102C5000A3F11400FDF741FB0A20FDF7C4FE44F286
:102C60003810C2F20000FEF728FF6420FDF7BBFE1B
:102C7000E078D8B1E570A088E188884206D244F2B5
:102C80002410C2F2000000F069F80CE0421A20693A
:102C900008441146FDF7ADFAA188E0886269091A77
:102CA0001044FDF7A6FAE088A0801CE0A07860B18F
:102CB000A570032242F6A251C0F6000144F2B4000E
:102CC000C2F2000000F06BF80DE0207858B12570DA
:102CD000032242F6A651C0F6000144F2B400C2F24B
:102CE000000000F05CF801210020FEF76CF8BFE75F
:102CF000F0B50B30154D20F007010024144A0FE009
:102D000003688B420BD38B4205D95E1A4318476880
:102D1000C3E9006700E04368136002C004E0021DDD
:102D200010680028ECD12046002802D1286808B19C
:102D30000020F0BD064A07481060074A121A22F028
:102D40000702C0E9002401202860D7E7B040002036
:102D5000AC4000208C42002088920020826822B182
:102D60001268136823F001031360C26822B112686D
:102D7000136823F001031360826812685160C2680F
:102D800012685160816809680A6842F001020A60AD
:102D9000C0680068016841F0010101607047FFF7F9
:102DA0008CBA4D787800547878000000000000005C
:102DB00000000102030406070809000000000102E8
:102DC000030402030405060708090A0B0C0D0E0F85
:102DD00010100102030405060708090A0B0C0D0E6A
:102DE0000F1000004275666665724E6F74496E6919
:102DF0007469616C697A65640A000000302E00080D
:102E000000000020B440000048020008E833000839
:102E1000B4400020D4560000C22A0008434F5B7E15
:102E2000677E7E7E74000A14321F3232322900001F
:102E300002B50001F00E01010303040406060808B0
:102E400009090B01021A0C0102210E0102271001CF
:102E5000022B1101022F130102271401021D16017A
:102E600002191801021A190102191B01021A1C0188
:102E7000021A1E01021B2001023121010236230128
:102E8000023A2401023D2601023F280102412901A4
:102E900002452B0102482C01024D2E010255300142
:102EA00002533101025633010258340102583601EF
:102EB0000259380102593901025A3B01025A3C01B8
:102EC000025B3E01025C4001025D4101025D430183
:102ED000025E4401025E4601025E4801025F490152
:102EE000025E4B01025E4C01025F4E01025F500127
:102EF000025F5101025F530102605501025F5601FA
:102F000002615801025E5901025C5B01025A5D01D7
:102F100002595E01025760010258610102656301B6
:102F2000026C6501026A6601026768010259690163
:102F3000024F6B01024A6D0102456E0102447001AD
:102F4000024371010243730102417501024076019F
:102F5000023E7801023F7901023D7B01023E7D0184
:102F6000023D7E01023D8001023D8101023C830160
:102F7000023D8501023D8601023C8801023C890137
:102F8000023B8B01023A8D01023A8E01023A900116
:102F9000023A9101023993010239950102379601F3
:102FA000023798010236990102369B0102349D01D5
:102FB00002339E010232A0010235A1010235A301B4
:102FC0000237A5010236A6010236A8010234AA0181
:102FD0000233AB010230AD01022FAE01022FB0016E
:102FE000022CB2010229B3010227B5010222B60167
:102FF0000221B801021EBA01021DBB01021ABD0165
:103000000218BE010216C0010212C201E2C301226F
:10301000C50132C60122C80132CA0132CB0122CD1C
:103020000132CE0132D00132D20132D30132D50188
:1030300032D60132D80132DA0122DB0132DD01322F
:10304000DE0122E00132E20132E30122E50122E663
:103050000132E80132EA0132EB0132ED0142EE01C8
:1030600032F00132F20142F30162F501C2F601527F
:10307000F80100089EFAFAFBFBFDFDFF01A0A1FD8F
:10308000FBFAF8F6F5F3F2F0EEEDEBEAE8E6E5E34D
:10309000E2E0DEDDDBDAD8D6D5D3D2D0CECDCBCAD6
:1030A000C8C6C5C3C2C0BEBDBBBAB8B6B5B3B2B060
:1030B000AEADABAAA8A6A5A3A1A09E9D9B999896EC
:1030C000959391908E8D8B898886858381807E7D76
:1030D0007B797876757371706E6D6B696866656300
:1030E00061605E5D5B595856555351504E4C4B498B
:1030F0004846444341403E3C3B3938363433313016
:103100002E2C2B292826242321201E1C1B1918169F
:10311000141311100E0C0B09080604030100FF0222
:10312000E164031900FF7C032000FF9C032600FFDD
:10313000C3032A00FFEF072E00FF1F071300FF53F2
:10314000051147D700FF7FD565B700FFA0B580D731
:1031500000FFBEA59BD700FFDC95B6E700FFF99501
:10316000D1FB00FF1785ED0B1100FF35790A011324
:103170001E0514B7793D0B2B00FF8889740B2E00B8
:10318000FFC299B001303DAB6B69EF0F3200FF40D9
:1031900003AD3003013442C36665440D36C703CD29
:1031A000BB03013848DF616005040F3A00FF5B0490
:1031B0000D105404013C500D18AB04011CA801541F
:1031C000560D3959050F5700FFB30501B45B02B620
:1031D000305C02B82E5D0005B92C00FFC05F02BE56
:1031E0002B6002FF29610D217C0A0D5C020301C3E3
:1031F0006102FF26620185620E5724300891620346
:1032000060DDDB644D640E0D44A9090113617DC6C8
:103210000E0142640116C02D240F01415F0510818B
:103220007D800F01405EC64EDDBDDB0F013E5D9D22
:10323000BF0FD15A033EC6C55CA15B0D12921001AF
:103240003C5F9DD00A91680D18FC1001476E022367
:10325000316F053C3D01136D01546B01126A01474A
:103260005D01115C013F55F152013B4EE14D0137CB
:103270004A014648C1DC0137DA018946014244016E
:10328000404389300276B6420145400A3721F301B6
:103290003E405DE7150D36C812023E6340617F0275
:1032A00074BB405DE516013740613F0D352F1301BA
:1032B0003D3F013B3E01423D0D34FA053D571801AB
:1032C000723D01753C01713A013D39012F380138D9
:1032D000370130360933F419F10D31E8033D660347
:1032E0000D3120045D1E043172012A7102437039D0
:1032F0000128386D49040137370D28F8195D760427
:1033000021330156328D22040D25AD096DDA030DEE
:10331000104A1B01162E212C01242B212A011F29C2
:103320002D570A012224011B222D8110011E20018C
:10333000171E211D0115392D9E110112343DB711A3
:10334000011116CDFA1D3D64131106500500FF83CF
:103350002C063C0400FF85C0153E8585162E86454B
:10336000173E864B173E880A183E88C7183E8928A4
:10337000193E89DD193E893B1A3E8B911A3E8BE23C
:103380001A2E8DB51B3E8DFB1B3E8E3E1C2E8E7C59
:103390001C3E90B61C3E90F71C2E91191D100491F6
:1033A000504E8E3D5D1D1E93B70E3C0400FF95CF21
:1033B0001D3E95071E4E963C1E3E966C1E1A986248
:1033C0001D961E2DFB0411D54DD61C11DEA52361C3
:1033D000ED6DF21E0D9D9E1F8C0400127AE83F1DBC
:0833E000EC3FDE106D4000001F
:040000050800018965
:00000001FF
